:0C0000000C9455000C947C000C94000043
:10000C000C9400000C9400000C9400000C94000064
:10001C000C9400000C9400000C9400000C94000054
:10002C000C9400000C9400000C9400000C94000044
:10003C000C9400000C9400000C9400000C94000034
:10004C000C9400000C9400000C9400000C94000024
:10005C000C9400000C9400000C9400000C94000014
:10006C000C9400000C9400000C9400000C94000004
:10007C000C9400000C9400000C9400000C940000F4
:10008C000C9400000C9400000C9400001027E80362
:10009C0064000A0001000010000110000100F89437
:1000AC00EE27EFBBF1E0F5BFE5BFF8E1A895A4B7EB
:1000BC00A77FA4BFF0936000E09360008DE0A2E006
:1000CC00BB27ED938A95E9F780E090E2A0E0B1E0E0
:1000DC00ED930197E9F78BBFE0E0EEBBEFEFEDBFDF
:1000EC00E0E2EEBFC0E0D5E00C949100AA93EA9355
:1000FC00FA93EFB7EA93E8B1A0E8EA27E8B9E1E0B0
:10010C00F0E0E0930005F0930105E991EFBFF99160
:10011C00E991A99118953F9A589AE2E0E093690009
:10012C00E1E0EDBBECBBE0E0E0936800E0910005A2
:10013C00F0910105309711F478940CC0F894EEEE20
:10014C00F2E0FA93EA930E94B200E0E0E09300053B
:10015C00E0930105EBCFFFCFE991F991309639F09F
:10016C0084EF91E00197F1F7A8953197C9F70895BD
:00000001FF
