:0C0000000C9455000C9400000C940000BF
:10000C000C9400000C9400000C9400000C94000064
:10001C000C9400000C9400000C9400000C94000054
:10002C000C9400000C9400000C9400000C94000044
:10003C000C9400000C9400000C9400000C94000034
:10004C000C9400000C9400000C947C000C940000A8
:10005C000C9400000C9400000C9400000C94000014
:10006C000C9400000C9400000C9400000C94000004
:10007C000C9400000C9400000C9400000C940000F4
:10008C000C9400000C9400000C9400001027E80362
:10009C0064000A0001000010000110000100F89437
:1000AC00EE27EFBBF1E0F5BFE5BFF8E1A895A4B7EB
:1000BC00A77FA4BFF0936000E09360008DE0A2E006
:1000CC00BB27ED938A95E9F780E090E2A0E0B1E0E0
:1000DC00ED930197E9F78BBFE0E0EEBBEFEFEDBFDF
:1000EC00E0E2EEBFC0E0D5E00C94A100AA93BA9375
:1000FC00EA93FA93EFB7EA93A0E0B5E0ED91FD91A6
:10010C003196FE93EE93A0910005B0910105A536B2
:10011C00E0E0BE074CF0E8B1A0E8EA27E8B9E0E07F
:10012C00E0930005E0930105E991EFBFF991E991A6
:10013C00B991A99118953F9AE2E0E4BDE5E0E5BDDF
:10014C00E3E1E7BDE2E0E0936E007894FFCFFFCFF0
:00000001FF
