:0C0000000C9455000C9400000C940000BF
:10000C000C9400000C9400000C9400000C94000064
:10001C000C9400000C9400000C9400000C94000054
:10002C000C9400000C9400000C9400000C94000044
:10003C000C9400000C9400000C9400000C94000034
:10004C000C9400000C9400000C9400000C94000024
:10005C000C9400000C9400000C9400000C94000014
:10006C000C9400000C9400000C9400000C94000004
:10007C000C9400000C9400000C9400000C940000F4
:10008C000C9400000C9400000C9400001027E80362
:10009C0064000A0001000010000110000100F89437
:1000AC00EE27EFBBF1E0F5BFE5BFF8E1A895A4B7EB
:1000BC00A77FA4BFF0936000E09360008DE0A2E006
:1000CC00BB27ED938A95E9F780E090E2A0E0B1E0E0
:1000DC00ED930197E9F78BBFE0E0EEBBEFEFEDBFDF
:1000EC00E0E2EEBFC0E0D5E00C947C00279AE1E89A
:1000FC00E4BDE1E0E5BDE0E0E6BDE7BDE8BDE0E084
:10010C00E0930005E0930105A0910005B091010575
:10011C00AF3FE0E0BE0754F40E94B500A0E0B5E0AC
:10012C00ED91FD913196FE93EE93EECFEFEFF0E073
:10013C00E0930005F0930105A0910005B091010535
:10014C000E94CA0054F40E94B500A0E0B5E0ED9105
:10015C00FD913197FE93EE93EFCFD1CFFFCFE0918E
:10016C000005E7BDE5E0F0E0FA93EA930C94BE00DD
:10017C00E991F991309639F084EF91E00197F1F71C
:10018C00A8953197C9F7089500240A160B0608950F
:00000001FF
