:0A0000000C9434000C9473000C946F
:10000A0000000C9400000C9400000C9400000C9466
:10001A0000000C9400000C9400000C9400000C9456
:10002A0000000C9400000C9400000C9400000C9446
:10003A0000000C9400000C9400000C9400000C9436
:10004A0000000C9400000C9400000C9400000C9426
:10005A0000000C9400000C9400000C940000F8942A
:10006A00EE27EFBBF1E0F5BFE5BFF8E1A895A4B72D
:10007A00A77FA4BFF0936000E09360008DE0A2E048
:10008A00BB27ED938A95E9F780E098E0A0E0B1E01C
:10009A00ED930197E9F7E0E0EEBBEFEFEDBFE8E0A3
:1000AA00EEBFC0E0D3E00C949600E881E066E093EE
:1000BA007C0083E08A95F1F7E0917A00E064E093AE
:1000CA007A00E0917A00E071E1F3E0917A00E06170
:1000DA00E0937A00E0917900219608950A921A92A3
:1000EA00FA926A937A938A939A93AA93BA93EA931F
:1000FA00FA93EFB7EA93289AE8EBFBE0FA93EA93CC
:10010A000E94C9002898E991EFBFF991E991B99144
:10011A00A9919991899179916991F9901990099088
:10012A001895209A5A9AE2E0E0936900E1E0EDBB63
:10013A00ECBBE0E0E0936800E0937E00E0E6E09349
:10014A007C00E1E8E0937A00E0917B00EF77E093AE
:10015A007B00E0917B00E068E0937B007894E0E02C
:10016A00EA93A3DFF0E0E0930003F0930103A09188
:10017A000003B0910103AE3FE0E0BE0711F4289AF4
:10018A0001C02898ECCFFFCFE991F991309639F068
:10019A008AEF90E00197F1F7A8953197C9F708958A
:00000001FF
