:0A0000000C9455000C9400000C94C1
:10000A0000000C9400000C9400000C9400000C9466
:10001A0000000C9400000C9400000C9400000C9456
:10002A0000000C9400000C9400000C9400000C9446
:10003A0000000C9400000C9400000C9400000C9436
:10004A0000000C9400000C9400000C9400000C9426
:10005A0000000C9400000C9400000C9400000C9416
:10006A0000000C9400000C9400000C9400000C9406
:10007A0000000C9400000C9400000C9400000C94F6
:10008A0000000C9400000C9400000C94000010274F
:10009A00E80364000A0001000010000110000100DA
:1000AA00F894EE27EFBBF1E0F5BFE5BFF8E1A895BC
:1000BA00A4B7A77FA4BFF0936000E09360008DE02F
:1000CA00A2E0BB27ED938A95E9F780E090E2A0E0F1
:1000DA00B1E0ED930197E9F78BBFE0E0EEBBEFEFFC
:1000EA00EDBFE0E2EEBFC0E0D5E00C949500E881F8
:1000FA00E066E0937C0087E08A95F1F7E0917A0068
:10010A00E064E0937A00E0917A00E071E1F3E09133
:10011A007A00E061E0937A00E091790021960895EF
:10012A00279A509A249AE1EAE4BDE1E0E5BDE0E0CD
:10013A00E6BDE7BDE8BDE1E8E093B000E1E0E093A9
:10014A00B100E0E0E093B200E093B300E093B400C2
:10015A00E0937E00E0E6E0937C00E1E8E0937A0039
:10016A00E0917B00EF77E0937B00E0917B00E06811
:10017A00E0937B00E0E00E94E000E0930005F0934A
:10018A000105E0910005E7BDE1E00E94E000E0938F
:10019A000205F0930305E0910205E8BDE2E00E9442
:1001AA00E000E0930405F0930505E0910405E0936F
:1001BA00B300E0CFFFCFEA930E947C00F0E00895FD
:00000001FF
