:080000000C943D000C9400007B
:100008000C9400000C9400000C9400000C94000068
:100018000C9400000C9400000C9400000C94000058
:100028000C9400000C9400000C9400000C94000048
:100038000C9400000C9400000C9400000C94000038
:100048000C9400000C9400000C9400000C94000028
:100058000C9400000C9400000C9400000C94000018
:100068001027E80364000A000100001000011000D6
:100078000100F894EE27EFBBF1E0F5BFE5BFF8E12A
:10008800A895A4B7A77FA4BFF0936000E093600091
:100098008DE0A2E0BB27ED938A95E9F780E098E030
:1000A800A0E0B1E0ED930197E9F7E0E0EEBBEFEFF8
:1000B800EDBFE8E0EEBFC0E0D3E00C947C00E8813F
:1000C800E066E0937C0083E08A95F1F7E0917A009E
:1000D800E064E0937A00E0917A00E071E1F3E09166
:1000E8007A00E061E0937A00E09179002196089522
:1000F800569A559A239AE1EAE4BDE9E0E5BDE0E0C5
:10010800E6BDE7BDE8BDE1E8E093B000E1E0E093DB
:10011800B100E0E0E093B200E093B300E093B400F4
:10012800E0937E00E0E6E0937C00E1E8E0937A006B
:10013800E0917B00EF77E0937B00E0917B00E06843
:10014800E0937B00E0E00E94C700E0930003F09397
:100158000103E0910003E7BDE1E00E94C700E093DE
:100168000203F0930303E0910203E8BDE2E00E947A
:10017800C700E0930403F0930503E0910403E093C0
:10018800B300E0CFFFCFEA930E946300F0E0089548
:00000001FF
